:020000040000FA
:020000000528D1
:040002000034003492
:020008007C2951
:06000A008316880101309D
:1000100086008A30870003178801890103130230A4
:100020008100F0308B00151402308C00831603130E
:100030001930990083160313981618121815831295
:10004000031398178316031787110313831288016C
:100050008316F930920083128C017F309200910157
:100060001130A00081003A30A70000309000A201BA
:10007000A10187019901B401B70105214220E520C2
:100080004B203D289630A800C830A900A90B46286F
:10009000A80B4428080023080319E3287A30230218
:1000A0000318AF28753023020318B12870302302DB
:1000B0000318B3286B3023020318B52866302302D7
:1000C0000318B728613023020318B9285C302302D3
:1000D0000318BB28573023020318BD2852302302CF
:1000E0000318BF284D3023020318C12848302302CB
:1000F0000318C328433023020318C5283E302302C7
:100100000318C728393023020318C92834302302C2
:100110000318CB282F3023020318CD282A302302BE
:100120000318CF28253023020318D12820302302BA
:100130000318D3281B3023020318D52816302302B6
:100140000318D728113023020318D9280C302302B2
:100150000318DB28073023020318DD28DF281330BB
:10016000E1282130E1282D30E1283930E1284430E0
:10017000E1284F30E1285930E1286330E1286C3024
:10018000E1287430E1287C30E1288330E1288B308D
:10019000E1289130E1289830E1289E30E128A33011
:1001A000E128A930E128AE30E128B230E128B730AB
:1001B000E128BB30E128BF30E128C330E128C63058
:1001C000E128A000E428A001080022082104031966
:1001D00003292208173C031C03292208A600210832
:1001E000A500A4012708A502031CA6032608FF3AC0
:1001F000031900292608250403190029A40AF22856
:100200002408A3000800A301080007151D210711F9
:10021000871D08298F018E0110140F08623C031CF2
:10022000152987190D291010182910108E018F011A
:100230000E08A1000F08A200080000000000000046
:1002400000000000000000000000000000000800A6
:1002500044304B2169304B2173304B2174304B219A
:1002600061304B216E304B2163304B2169304B2183
:1002700061304B213A304B2120304B2123084F2154
:1002800020304B2163304B216D304B210D304B2101
:100290000A304B2108000C1E4B2999000800B000C1
:1002A000B301B101B20164303002031C5B29643038
:1002B000B002B30A53290A303002031C63290A3002
:1002C000B002B10A5B293008B200330803196A2969
:1002D000303E4B21310803196F29303E4B21320843
:1002E000303E4B2108006430B500C830B600B60B74
:1002F0007729B50B75290800F100030EF0000B19E2
:1003000086298B1890298C1895299E290B11341C4D
:100310009E29200803199E298100013088069E2904
:100320008B1073210130B4069E298C10B70A370850
:100330000A3C031D9E29B70128219E29700E8300C7
:06034000F10E710E090030
:02400E00E123AC
:02401000FF3F70
:00000001FF
