:020000040000FA
:020000001528C1
:040002000034003492
:02000800492885
:06000A00820711342B34C3
:1000100042344D3461347234813489349634A1349D
:10002000A734B034B934C134C434831686010317FD
:1000300088018901031382308100A0308B00831274
:1000400086014230A00081002620242807143E208B
:100050000710871C29288F018E0110140F08623C9D
:10006000031C362887182E281010392810108E01EE
:100070008F010E08A1000F08A20008000000000078
:100080000000000000000000000000000000000070
:100090000800F100030EF0000B194F2855280B1132
:1000A00020088100013086065528700E8300F10E6D
:0400B000710E0900C4
:02400E00E123AC
:02401000FF3F70
:00000001FF
