:020000040000FA
:020000000528D1
:040002000034003492
:020008005A2973
:06000A00831686018A3016
:100010008700031788018901031382308100A03013
:100020008B00193099002630980083129030980088
:1000300086011130A00081003A30A7000030900006
:10004000A201A10187019901EC202920CC203220B6
:1000500024286430A800C830A900A90B2D28A80BBB
:100060002B28080023080319CA287A302302031812
:10007000962875302302031898287030230203183D
:100080009A286B30230203189C2866302302031839
:100090009E28613023020318A0285C302302031835
:1000A000A228573023020318A42852302302031831
:1000B000A6284D3023020318A8284830230203182D
:1000C000AA28433023020318AC283E302302031829
:1000D000AE28393023020318B02834302302031825
:1000E000B2282F3023020318B4282A302302031821
:1000F000B628253023020318B8282030230203181D
:10010000BA281B3023020318BC2816302302031818
:10011000BE28113023020318C0280C302302031814
:10012000C228073023020318C428C6281030C82864
:100130001F30C8282B30C8283730C8284230C8287C
:100140004D30C8285730C8286130C8286A30C828C0
:100150007230C8287A30C8288130C8288930C82829
:100160008F30C8289630C8289C30C828A130C828AD
:10017000A730C828AC30C828B030C828B530C82847
:10018000BB30C828BF30C828C330C828C630C828EC
:10019000A000CB28A0010800220821040319EA28A6
:1001A0002208173C031CEA282208A6002108A50003
:1001B000A4012708A502031CA6032608FF3A031979
:1001C000E728260825040319E728A40AD9282408C3
:1001D000A3000800A3010800071504210711871DCB
:1001E000EF288F018E0110140F08623C031CFC28BD
:1001F0008719F4281010FF2810108E018F010E08A7
:10020000A1000F08A200080000000000000000008C
:100210000000000000000000000000000800443062
:100220003221693032217330322174303221613011
:1002300032216E3032216330322169303221613017
:1002400032213A3032212030322123083621203029
:100250003221633032216D3032211330322110309F
:1002600032210800981C322999000800B000B3011F
:10027000B101B20164303002031C42296430B00283
:10028000B30A3A290A303002031C4A290A30B00264
:10029000B10A42293008B200330803195129303E0F
:1002A0003221310803195629303E32213208303EBE
:1002B00032210800F100030EF0000B1960296829B3
:1002C0000B1120080319682981000130860668296E
:0A02D000700E8300F10E710E09009C
:02400E00E123AC
:02401000FF3F70
:00000001FF
