:020000040000FA
:020000000528D1
:040002000034003492
:02000800D628F8
:06000A00831686010A3096
:100010008700031788018901031382308100A03013
:100020008B00831286011130A00081003A30A700B6
:1000300000309000A201A1018701B7202220972063
:100040002C201D283C30A8006430A900CB20A90B2F
:100050002628A80B2428080023080319952898307F
:100060002302031868288E30230203186B2884307B
:10007000230203186E287A30230203187128703087
:1000800023020318742866302302031877285C3093
:10009000230203187A285230230203187D2848309F
:1000A0002302031880283E302302031883283430AB
:1000B0002302031886282A302302031889282030B7
:1000C000230203188C281630230203188F28922845
:1000D0001130A00096282B30A00096284230A000B6
:1000E00096284D30A00096286130A00096287230E6
:1000F000A00096288130A00096288930A00096287C
:100100009630A0009628A130A0009628A730A00025
:100110009628B030A0009628B930A0009628C130AB
:10012000A0009628C430A0009628A001080022084C
:1001300021040319B5282208173C031CB5282208FE
:10014000A6002108A500A4012708A502031CA603F8
:100150002608FF3A0319B228260825040319B228F5
:10016000A40AA4282408A3000800A3010800071576
:10017000CB200711871DBA288F018E011014871913
:10018000BF281010C62810108E018F010E08A10084
:100190000F08A2000800000000000000000000009E
:1001A000000000000000000000000800F100030E45
:1001B000F0000B19DC28E4280B1120080319E428AF
:1001C000810001308606E428700E8300F10E710E66
:0201D000090024
:02400E00E123AC
:02401000FF3F70
:00000001FF
