:020000040000FA
:020000000528D1
:040002000034003492
:02000800CC2802
:06000A008316860102309E
:100010008700031788018901031382308100A03013
:100020008B00831286019830A00081003A30A7002F
:1000300000309000A92089201E201A2823080319C7
:1000400087289830230203185A288E302302031879
:100050005D2884302302031860287A3023020318B5
:1000600063287030230203186628663023020318C1
:1000700069285C30230203186C28523023020318CD
:100080006F2848302302031872283E3023020318D9
:10009000752834302302031878282A3023020318E5
:1000A0007B282030230203187E28163023020318F1
:1000B000812884281130A00088282B30A0008828AF
:1000C0004230A00088284D30A00088286130A00070
:1000D00088287230A00088288130A00088288930C4
:1000E000A00088289630A0008828A130A000882889
:1000F000A730A0008828B030A0008828B930A00020
:100100008828C130A0008828C430A0008828A00119
:100110000800220821040319A7282208173C031C01
:10012000A7282208A6002108A500A4012708A502E7
:10013000031CA6032608FF3A0319A4282608250451
:100140000319A428A40A96282408A3000800A301E0
:1001500008000714C1200710871CAC288F018E01EE
:1001600010140F08623C031CB9288718B12810101E
:10017000BC2810108E018F010E08A1000F08A200EC
:100180000800000000000000000000000000000067
:100190000000000000000800F100030EF0000B1941
:1001A000D228DB280B112008FF3A0319DB28810035
:1001B00001308606DB28700E8300F10E710E0900F7
:02400E00E123AC
:02401000FF3F70
:00000001FF
